{
  "_format": "hh-sol-artifact-1",
  "contractName": "Wallet",
  "sourceName": "contracts/Wallet.sol",
  "abi": [
    {
      "inputs": [
        {
          "internalType": "address",
          "name": "receiver",
          "type": "address"
        }
      ],
      "name": "test",
      "outputs": [],
      "stateMutability": "nonpayable",
      "type": "function"
    }
  ],
  "bytecode": "0x608060405234801561001057600080fd5b506102d4806100206000396000f3fe608060405234801561001057600080fd5b506004361061002b5760003560e01c8063bb29998e14610030575b600080fd5b61004a600480360381019061004591906101f0565b61004c565b005b610054610060565b61005d8161008a565b50565b60008060008081526020019081526020016000206000808152602001908152602001600020905050565b60006040518060a0016040528060015481526020018373ffffffffffffffffffffffffffffffffffffffff168152602001606481526020016001548152602001600015158152509050806002600060015481526020019081526020016000206000820151816000015560208201518160010160006101000a81548173ffffffffffffffffffffffffffffffffffffffff021916908373ffffffffffffffffffffffffffffffffffffffff160217905550604082015181600201556060820151816003015560808201518160040160006101000a81548160ff0219169083151502179055509050506001600081548092919061018490610256565b91905055505050565b600080fd5b600073ffffffffffffffffffffffffffffffffffffffff82169050919050565b60006101bd82610192565b9050919050565b6101cd816101b2565b81146101d857600080fd5b50565b6000813590506101ea816101c4565b92915050565b6000602082840312156102065761020561018d565b5b6000610214848285016101db565b91505092915050565b7f4e487b7100000000000000000000000000000000000000000000000000000000600052601160045260246000fd5b6000819050919050565b60006102618261024c565b91507fffffffffffffffffffffffffffffffffffffffffffffffffffffffffffffffff82036102935761029261021d565b5b60018201905091905056fea264697066735822122077c10e9e106098fce756cfa17df28bd4967b2c667861608edb31b539c1d8562264736f6c63430008110033",
  "linkReferences": {},
  "deployedLinkReferences": {}
}